:020000040800F2
:1000000030100020350100083D0100083F010008C4
:1000100041010008430100084501000800000000FC
:100020000000000000000000000000004701000880
:1000300049010008000000004B0100084D010008C4
:100040004F0100084F0100084F0100084F01000850
:100050004F0100084F0100084F0100084F01000840
:100060004F0100084F0100084F0100084F01000830
:100070004F0100084F0100084F0100084F01000820
:100080004F0100084F0100084F0100080000000068
:100090000000000000000000000000004F01000808
:1000A0004F0100084F0100084F0100084F010008F0
:1000B0004F0100084F0100084F0100084F010008E0
:1000C0004F0100084F0100084F0100084F010008D0
:1000D0004F01000885090008A9090008250A000841
:1000E0004F0100084F0100084F0100080000000008
:1000F0000000000000000000000000000000000000
:1001000000000000000000000000000000000000EF
:1001100000000000000000004F0100084F0100082F
:10012000DFF80CD000F044F800480047C10F000889
:10013000301000200648804706480047FEE7FEE7EB
:10014000FEE7FEE7FEE7FEE7FEE7FEE7FEE7FEE787
:100150002109000821010008D2B201E000F8012BBA
:10016000491EFBD270470022F6E710B513460A4637
:1001700004461946FFF7F0FF204610BD30B505468E
:100180002A460B4612F8010B13F8014B08B1A042A6
:10019000F8D01CB1002802D06D1CF1E7284630BD14
:1001A000421C10F8011B0029FBD1801A7047000087
:1001B000064C074D06E0E06840F0010394E80700B4
:1001C00098471034AC42F6D3FFF7AEFF2011000879
:1001D000401100082DE9F04105460F461646294614
:1001E0001B4800F0EBFD012000F06CF9294619488E
:1001F00000F0E4FD00BF184800780028FBD00A207A
:1002000000F060F939461548FFF7B8FF04468CB195
:100210000221134800F007FA322000F053F90020C1
:100220000D4908704FF480610C48FFF79CFF304681
:10023000BDE8F081322000F045F900200649087041
:100240004FF480610548FFF78EFF0020F0E70000C3
:10025000004400400038014001000020300400202C
:100260000008014021B1026842F00102026004E08E
:1002700002684FF6FE731A4002607047F0B58BB00B
:1002800007460D4616461C460121084600F03AFA7C
:10029000384600F01BF80095019600200290039468
:1002A00004908020059000200690079008904FF45D
:1002B0008050099000200A906946384600F0C0F846
:1002C0002146384600F0A8F80BB0F0BD01684FF6A3
:1002D000FE72114001600021016041608160C160D7
:1002E0004B49884208D14A490839496841F00F0111
:1002F000474A083A51608AE045491431884208D19A
:1003000043490839496841F0F001414A083A5160CF
:100310007DE03F492831884208D13D490839496884
:1003200041F470613A4A083A516070E038493C3112
:10033000884208D136490839496841F47041344A45
:10034000083A516063E032495031884208D130495F
:100350000839496841F470212D4A083A516056E045
:100360002B496431884208D129490839496841F448
:100370007001274A083A516049E02549783188429E
:1003800008D123490839496841F07061204A083A88
:1003900051603CE01F49884206D1011F096841F0C5
:1003A0000F01021F116032E01A491431884208D14E
:1003B0001849091F096841F0F001164A121F11601F
:1003C00025E014492831884208D11249091F0968DB
:1003D00041F470610F4A121F116018E00D493C3161
:1003E000884208D10B49091F096841F47041094A44
:1003F000121F11600BE007495031884207D10549AF
:10040000091F096841F47021024A121F11607047E8
:10041000080002400804024070B504460D46002161
:100420002046FFF71FFF2946204600F027F801214C
:100430002046FFF717FF70BD0146486880B270473D
:1004400010B50022026847F6F0739A430C6A8B6875
:1004500023430C6923434C6923438C692343CC69B0
:1004600023434C6A23438C6A23431A430260CB68BC
:1004700043600B6883604B68C36010BD4160704788
:1004800010B56FF0040000F037FA0A4800680A4916
:10049000B0FBF1F0094908700846007800EB400114
:1004A000C1EBC0104FF6FF7101EAC000044908809B
:1004B00010BD00001C00002000127A000400002083
:1004C00006000020014600224FF0E0231A610E4A88
:1004D00012884A435A6100229A611A46126942F010
:1004E00001021A6100BF4FF0E022106900F0010222
:1004F0001AB100F48032002AF5D000224FF0E02338
:100500001A619A6170470000060000202DE9F04151
:10051000024600250026002000230024002791F831
:1005200003C00CF00F0591F803C00CF0100CBCF1E7
:10053000000F03D091F802C04CEA050591F800C005
:10054000BCF1000F31D0146800202BE04FF0010CFB
:100550000CFA00F3B1F800C00CEA03069E4220D169
:1005600083004FF00F0C0CFA03F7BC4305FA03FCB1
:100570004CEA040491F803C0BCF1280F06D14FF0F7
:10058000010C0CFA00FCC2F814C00AE091F803C098
:10059000BCF1480F05D14FF0010C0CFA00FCC2F879
:1005A00010C0401C0828D1D31460B1F800C0BCF1C1
:1005B000FF0F34DD546800202EE000F1080C4FF0EE
:1005C000010808FA0CF3B1F800C00CEA03069E42D9
:1005D00021D183004FF00F0C0CFA03F7BC4305FA4E
:1005E00003FC4CEA040491F803C0BCF1280F05D1C8
:1005F00000F1080C08FA0CF8C2F8148091F803C056
:10060000BCF1480F07D100F1080C4FF0010808FABF
:100610000CF8C2F81080401C0828CED35460BDE806
:10062000F0814161704701617047000008B5012108
:10063000042000F087F80220ADF8000003208DF8B8
:10064000020010208DF8030069460248FFF75EFFA4
:1006500008BD00000008014038B504464FF4E060D2
:1006600000F046F88DF8004000208DF801008DF86C
:10067000020001208DF80300684600F001F838BD43
:1006800070B5002100230F22C47804B3154C2468F0
:1006900004F4E064C4F5E064210AC1F10403CA4033
:1006A000447804FA03F184781440214309010E4C84
:1006B0000678A155047804F01F050124AC400578A4
:1006C0006D11AD0005F1E025C5F8004109E00478A1
:1006D00004F01F050124AC40044D0678761145F85E
:1006E000264070BD0CED00E000E400E080E100E099
:1006F00002490143024A1160704700000000FA05F8
:100700000CED00E029B1064A52690243044B5A61DC
:1007100004E0034A52698243014B5A61704700006A
:100720000010024029B1064AD2690243044BDA6143
:1007300004E0034AD2698243014BDA61704700004A
:100740000010024029B1064A92690243044B9A61A3
:1007500004E0034A92698243014B9A6170470000AA
:100760000010024070B50021002300240022002563
:100770002C4E766806F00C0121B1042905D0082919
:1007800021D105E0284E066020E0274E06601DE0DE
:10079000244E766806F47013224E766806F4803490
:1007A000022606EB93431CB9204E5E43066009E027
:1007B0001C4EF66A06F00F06751C1B4EB6FBF5F6CE
:1007C0005E43066002E0184E066000BF00BF154E93
:1007D000766806F0F0010909154E725C0668D6408D
:1007E0004660104E766806F4E061090A104E725CAD
:1007F0004668D64086600B4E766806F46051C90A9A
:100800000B4E725C4668D640C660064E766806F4AB
:100810004041890B074E725CC668B6FBF2F6066172
:1008200070BD00000010024000127A0000093D0077
:10083000080000201800002010B500F001F810BDDD
:100840000CB50020019000902A48006840F48030E8
:100850002849086000BF2748006800F40030009075
:100860000198401C0190009818B90198B0F5A06F4C
:10087000F1D12048006800F4003010B10120009050
:1008800001E0002000900098012831D1194840680B
:100890001849486008464068486008464068486013
:1008A0000846406820F47C1048600846406840F4E0
:1008B000981048600846006840F08070086000BFEB
:1008C0000C48006800F000700028F9D00948406822
:1008D00020F00300074948600846406840F00200E5
:1008E000486000BF0348406800F00C000828F9D1B8
:1008F0000CBD000000100240042808D14FF0E02198
:10090000096941F004014FF0E022116107E04FF066
:10091000E021096921F004014FF0E02211617047E4
:1009200010B51448006840F00100124908600846FC
:100930004068114908400F494860084600680F495F
:1009400008400C4908600846006820F480200860D0
:100950000846406820F4FE0048604FF41F0088609D
:100960000020C862FFF768FF4FF00060044908608C
:1009700010BD0000001002400000FFF8FFFFF6FE6F
:1009800008ED00E010B540F22771064800F05AF972
:10099000012805D1002240F22771024800F07CF9BD
:1009A00010BD00000038014070B54FF4806440F283
:1009B0002441164800F046F9C8B1144800F0A4FAE2
:1009C000C5B21348FFF738FD261A124A12A1134880
:1009D00000F0F4F9012012490870A1B20C48FFF7A9
:1009E0001BFD40F22441094800F042F800BF40F2EC
:1009F0002771064800F026F9012805D1002240F2AF
:100A00002771024800F048F970BD00000044004022
:100A10006C000240300400202568000000380140CE
:100A20000100002010B540F224410F4800F00AF9FF
:100A300060B140F224410C4800F01AF80A4800F076
:100A400063FA4FF480610948FFF7E6FC40F2277132
:100A5000054800F0F7F8012805D1002240F227717F
:100A6000014800F019F910BD004800403000024074
:100A700010B50022002340F66A14A14200D100BF45
:100A80000A1201249440A3B2DC43048010BD21B1BA
:100A9000828942F40052828104E082894DF6FF731C
:100AA0001A408281704700002DE9FF4105460F463C
:100AB00014461E46424885421DD1012144F20400DD
:100AC000FFF740FE2A1551103E4800F094F814B18B
:100AD0002520FFF7C1FD002E54D0012240213848C7
:100AE00000F080F84FF48063374A3549091D3748D4
:100AF000FFF7C4FB46E03648854220D10121480477
:100B0000FFF710FE01210420FFF71CFE082204213C
:100B10002C4800F070F814B12620FFF79DFD8EB32D
:100B2000012240212A4800F05DF84FF48063294AF1
:100B30002749091D25481430FFF7A0FB22E026486D
:100B400085421FD101218804FFF7ECFD0121082017
:100B5000FFF7F8FDEA145110204800F04CF814B1EA
:100B60002720FFF779FD6EB1012240211A4800F0DD
:100B700039F84FF480631A4A1549091D134828387B
:100B8000FFF77CFB00970020ADF80400ADF80800EB
:100B9000ADF80600ADF80C000C20ADF80A0069466F
:100BA000284600F09FF82CB1012240F2244128464B
:100BB00000F072F801212846FFF769FFBDE8FF81C8
:100BC0000038014000080140300000205800024079
:100BD000004400403004002000480040000C014068
:100BE000300800201AB1838A0B43838202E0838A93
:100BF0008B4383827047F8B506460C461546ADF820
:100C0000004018208DF8030003208DF8020069468B
:100C10003046FFF77BFCADF8005004208DF8030050
:100C200069463046FFF772FCF8BD02460020B1F578
:100C3000007F00D100BF13880B400BB1012000E002
:100C40000020704770B502460024002300250020D4
:100C500040F66A16B14200D100BFC1F3421501F05F
:100C60001F03012606FA03F3012D02D196893340B2
:100C700006E0022D02D1168A334001E0968A334005
:100C80000C12012606FA04F41688344013B10CB194
:100C9000012000E0002070BDF0B5034600240026CE
:100CA0000025002040F66A17B94200D100BF18465F
:100CB000C1F3421401F01F06012707FA06F5012CC3
:100CC00001D10C3004E0022C01D1103000E01430CE
:100CD0001AB107682F43076002E00768AF43076057
:100CE000F0BD00002DE9F04786B005460E46002411
:100CF000A24600BFA1460027B08900B100BF2F4621
:100D00002C8A4CF6FF700440F08804432C82AC8996
:100D10004EF6F3100440B0883189084371890843C6
:100D20000443AC81AC8A4FF6FF400440B0890443D1
:100D3000AC8201A8FFF716FD1F48874202D1DDF8FB
:100D400010A001E0DDF80CA0A88900F4004040B13B
:100D50000AEBCA0000EB0A1031684900B0FBF1F859
:100D600007E00AEBCA0000EB0A1031688900B0FB0B
:100D7000F1F86420B8FBF0F004012009642101FBC4
:100D80001089A88900F4004040B1322000EBC9006E
:100D9000B0FBF1F000F00700044308E0322000EB64
:100DA00009106421B0FBF1F000F00F0004432C8126
:100DB00006B0BDE8F0870000003801400FB42DE90F
:100DC000F04385B080464FF000090EA8009090E0F7
:100DD0000D9800785C281CD10D98401C0D9000786F
:100DE0006E2809D072280FD10D21404600F091F8ED
:100DF0000D98401C0D900BE00A21404600F089F848
:100E00000D98401C0D9003E00D98401C0D9000BF04
:100E10006FE00D98007825285DD10D98401C0D904D
:100E2000007864281AD0682835D073284ED10098ED
:100E300010C800900BE000BF40214046FFF7F5FED0
:100E40000028F9D02178404600F063F8641C20782F
:100E50000028F0D10D98401C0D903BE0009880C810
:100E600000900A2201A9384600F078F801AC0BE0A6
:100E700000BF40214046FFF7D8FE0028F9D0217876
:100E8000404600F046F8641C20780028F0D10D9808
:100E9000401C0D901EE0009820C80090284600F0ED
:100EA0004BF8814600260BE000BF40214046FFF78B
:100EB000BCFE0028F9D0A95D404600F02AF8761C57
:100EC0004E45F1DB0D98401C0D9003E00D98401C41
:100ED0000D9000BF0DE000BF40214046FFF7A5FE8A
:100EE0000028F9D00D9810F8011B0D90404600F035
:100EF00010F80D98007800287FF46AAF009005B0D4
:100F0000BDE8F0035DF814FB01468888C0F30800D3
:100F10007047C1F308028280704702E008C8121FC0
:100F200008C1002AFAD170477047002001E001C1D2
:100F3000121F002AFBD1704770B5044600252078A7
:100F4000812807D101E06D1C641C2078FA28FAD1B1
:100F5000681C70BD2046FFF723F9FAE7F0B5034699
:100F60000D461646002729460A2E03D00020087099
:100F70002846F0BD33B9302001F8010B002008707D
:100F80002846F6E7002B03DA2D2001F8010B5B421F
:100F900042F210720DE093FBF2F404B937B104F1A0
:100FA000300001F8010B04FB123301270A2092FBE9
:100FB000F0F2002AEFDC002008702846D9E7000094
:100FC000FFF75EFAFFF732FB00231A464FF4E131D8
:100FD0004148FFF769FD01231A464FF4E1313F48CC
:100FE000FFF762FD002405E04FF47A70FFF76AFA1C
:100FF000601CC4B2062CF7DB022239A13AA0FFF72D
:10100000E9F83B4908700846007830B9012239A157
:101010003AA0FFF7DFF83649087035480078012814
:1010200006D102222EA130A0FFF7D4F83049087073
:101030002F48007880B90EE002213248FFF7F3FA1A
:101040005020FFF73FFA02212E48FFF7EAFA4FF44B
:101050007A70FFF737FAEFE725480078022806D1C3
:10106000C82224A125A0FFF7B5F82149087032E075
:1010700002212448FFF7D7FA3220FFF723FA022192
:101080002048FFF7CEFA0A20FFF71CFA1EA12248DB
:10109000FFF774F838B10020204908704FF48061E0
:1010A0001D48FFF760F818A11B48FFF767F838B133
:1010B00000201A4908704FF480611748FFF753F871
:1010C0001648007838B10020144908704FF4806148
:1010D0001148FFF748F8CBE70038014000440040D2
:1010E0004154204F4E0000002B2B2B0D0A00000016
:1010F000030000204154434E204F4B004154434EC7
:101100000D0A00000008014054544D3A434F4E4E22
:1011100045435445440000003004002001000020F5
:101120004011000800000020300000001A0F0008E5
:101130007011000830000020001000002A0F000885
:101140000000000100000000000000000102030494
:1011500001020304060708090204060800366E01AE
:101160000000000000000000010203040607080957
:0400000508000121CD
:00000001FF
